{
  "contractName": "Exchange",
  "abi": [
    {
      "constant": false,
      "inputs": [
        {
          "name": "symbolName",
          "type": "string"
        },
        {
          "name": "erc20TokenAddress",
          "type": "address"
        }
      ],
      "name": "addToken",
      "outputs": [],
      "payable": false,
      "stateMutability": "nonpayable",
      "type": "function"
    },
    {
      "constant": true,
      "inputs": [
        {
          "name": "symbolName",
          "type": "string"
        }
      ],
      "name": "hasToken",
      "outputs": [
        {
          "name": "",
          "type": "bool"
        }
      ],
      "payable": false,
      "stateMutability": "view",
      "type": "function"
    }
  ],
  "bytecode": "0x6060604052336000806101000a81548173ffffffffffffffffffffffffffffffffffffffff021916908373ffffffffffffffffffffffffffffffffffffffff160217905550610543806100536000396000f30060606040526004361061004c576000357c0100000000000000000000000000000000000000000000000000000000900463ffffffff1680638ea0081814610051578063b0b22c2c146100c6575b600080fd5b341561005c57600080fd5b6100ac600480803590602001908201803590602001908080601f01602080910402602001604051908101604052809392919081815260200183838082843782019150505050505091905050610142565b604051808215151515815260200191505060405180910390f35b34156100d157600080fd5b610140600480803590602001908201803590602001908080601f0160208091040260200160405190810160405280939291908181526020018383808284378201915050505050509190803573ffffffffffffffffffffffffffffffffffffffff16906020019091905050610170565b005b60008061014e83610265565b905060008160ff161415610165576000915061016a565b600191505b50919050565b61017982610142565b15151561018557600080fd5b6002600081819054906101000a900460ff168092919060010191906101000a81548160ff021916908360ff160217905550508160016000600260009054906101000a900460ff1660ff1660ff16815260200190815260200160002060010190805190602001906101f692919061045e565b508060016000600260009054906101000a900460ff1660ff1660ff16815260200190815260200160002060000160006101000a81548173ffffffffffffffffffffffffffffffffffffffff021916908373ffffffffffffffffffffffffffffffffffffffff1602179055505050565b600080600190505b600260009054906101000a900460ff1660ff168160ff161115156102ca576102b0600160008360ff1660ff168152602001908152602001600020600101846102d5565b156102bd578091506102cf565b808060010191505061026d565b600091505b50919050565b6000806102e06104de565b60008592508491508151838054600181600116156101000203166002900490501415156103105760009350610455565b600090505b8280546001816001161561010002031660029004905081101561045057818181518110151561034057fe5b9060200101517f010000000000000000000000000000000000000000000000000000000000000090047f0100000000000000000000000000000000000000000000000000000000000000027effffffffffffffffffffffffffffffffffffffffffffffffffffffffffffff1916838281546001816001161561010002031660029004811015156103cc57fe5b8154600116156103eb5790600052602060002090602091828204019190065b9054901a7f0100000000000000000000000000000000000000000000000000000000000000027effffffffffffffffffffffffffffffffffffffffffffffffffffffffffffff19161415156104435760009350610455565b8080600101915050610315565b600193505b50505092915050565b828054600181600116156101000203166002900490600052602060002090601f016020900481019282601f1061049f57805160ff19168380011785556104cd565b828001600101855582156104cd579182015b828111156104cc5782518255916020019190600101906104b1565b5b5090506104da91906104f2565b5090565b602060405190810160405280600081525090565b61051491905b808211156105105760008160009055506001016104f8565b5090565b905600a165627a7a72305820a2b2d8060f273e3d37c2f8ce0e9153abd5a566183c49ec4573ca3cfb8a11e9dd0029",
  "source": "pragma solidity ^0.4.19;\n\nimport \"./owned.sol\";\nimport \"./FixedSupplyToken.sol\";\n\n// took out is owned because this teacher is a fuck up\ncontract Exchange is owned{\n    struct Offer {\n        //our offers have a volume and a person who is actually sending the token so an address\n        uint amount;\n        address who;\n\n    }\n\n    // he keeps saying our order book is a linked list, like x he has said this but I'm unclear on why\n    struct OrderBook {\n        //so our orders books are actually pointing to another order book, fuck this european guy and his lack of clarity, man\n        uint higherPrice;\n        uint lowerPrice;\n\n        mapping (uint => Offer) offers;\n\n        // now our offers is stack which is very easy in solidity\n        uint offers_key;\n        uint offers_length;\n    }\n\n    struct Token {\n        address tokenContract;\n        string symbolName;\n\n        mapping(uint => OrderBook) buyBook;\n        uint curBuyPrice;\n        uint lowestBuyPrice;\n        uint amountBuyPrice;\n\n        mapping(uint => OrderBook) sellBook;\n        uint curSellPrice;\n        uint highestSellPrice;\n        uint amountSellPrices;\n\n    }\n\n    //we support 255 tokens like bosses, no more!\n    mapping(uint8 => Token) tokens;\n    uint8 symbolNameIndex;\n\n    //////BALANCES///////\n\n    mapping(address => mapping(uint8 => uint)) tokenBalanceForAddress;\n\n    mapping(address => uint) balanceEthForAddress;\n\n\n\n    //////EVENTS///////\n\n\n\n    //////DEPOSIT AND WITHDRAWAL OF ETHER///////\n\n\n\n    //////TOKEN MANAGEMENT///////\n    //taking onlyOwner out because I hate this Thomas guy and he's teaching is shit\n    function addToken(string symbolName, address erc20TokenAddress)  {\n        /// try it yourself exercise\n        // And what you have to do is to increment the index of the tokens.\n        // And then, for the new \"index\" you add the new symbol-name.\n\n        // you missed this, first need to check if the token symbol is already in our system\n        require(!hasToken(symbolName));\n        symbolNameIndex++; // you got this correct lol\n        //wrong you can't use push because it's not a dynamic array, it's static\n        // Token.push()\n        //this instead is the proper way to do it, I guess\n        //ok makes a little sense, you added onto the symbol index and the one you just added and can accesss\n        // would just be symbolNameIndex !:)\n        tokens[symbolNameIndex].symbolName = symbolName;\n        tokens[symbolNameIndex].tokenContract = erc20TokenAddress;\n    }\n\n    function hasToken(string symbolName) constant returns (bool) {\n        // just need to check if it returns index of 0 or literally anything else\n        uint8 index = getSymbolIndex(symbolName);\n        if (index == 0) {\n            return false;\n        }\n        return true;\n\n\n    }\n\n    function getSymbolIndex(string symbolName) internal returns (uint8) {\n        for (uint8 i = 1; i <= symbolNameIndex; i++) {\n            if (stringsEqual(tokens[i].symbolName, symbolName)) {\n                return i;\n            }\n        }\n        return 0;\n    }\n\n\n    //////STRING COMPARISON FUNCTION//////\n        // he didn't write this. many people on internet did. the problem is how tdo we compare the strings from memory and the strings from storage\n    function stringsEqual(string storage _a, string memory _b) internal returns (bool) {\n        // in this case we have to cast them to a byte. sigh... fucking grammar, man\n        bytes storage a = bytes(_a);\n        bytes memory b = bytes(_b);\n        if (a.length != b.length)\n            return false;\n        // TODO: unroll this loop\n        for (uint i = 0; i < a.length; i++)\n            if (a[i] != b[i])\n                return false;\n        return true;\n    }\n\n\n\n    //////DEPOSIT AND WITHDRAWAL TOKEN///////\n\n\n\n}\n",
  "sourcePath": "/Users/erik1/Desktop/unboxthomas/contracts/ExchangeContract.sol",
  "compiler": {
    "name": "solc",
    "version": "0.4.19+commit.c4cbbb05.Emscripten.clang"
  },
  "schemaVersion": "2.0.0",
  "updatedAt": "2018-03-18T21:05:56.507Z"
}